{
  "contractName": "NFT",
  "abi": [
    {
      "inputs": [
        {
          "internalType": "address",
          "name": "_marketplaceAddress",
          "type": "address"
        }
      ],
      "stateMutability": "nonpayable",
      "type": "constructor"
    },
    {
      "anonymous": false,
      "inputs": [
        {
          "indexed": true,
          "internalType": "address",
          "name": "owner",
          "type": "address"
        },
        {
          "indexed": true,
          "internalType": "address",
          "name": "approved",
          "type": "address"
        },
        {
          "indexed": true,
          "internalType": "uint256",
          "name": "tokenId",
          "type": "uint256"
        }
      ],
      "name": "Approval",
      "type": "event"
    },
    {
      "anonymous": false,
      "inputs": [
        {
          "indexed": true,
          "internalType": "address",
          "name": "owner",
          "type": "address"
        },
        {
          "indexed": true,
          "internalType": "address",
          "name": "operator",
          "type": "address"
        },
        {
          "indexed": false,
          "internalType": "bool",
          "name": "approved",
          "type": "bool"
        }
      ],
      "name": "ApprovalForAll",
      "type": "event"
    },
    {
      "anonymous": false,
      "inputs": [
        {
          "indexed": true,
          "internalType": "address",
          "name": "from",
          "type": "address"
        },
        {
          "indexed": true,
          "internalType": "address",
          "name": "to",
          "type": "address"
        },
        {
          "indexed": true,
          "internalType": "uint256",
          "name": "tokenId",
          "type": "uint256"
        }
      ],
      "name": "Transfer",
      "type": "event"
    },
    {
      "inputs": [
        {
          "internalType": "address",
          "name": "to",
          "type": "address"
        },
        {
          "internalType": "uint256",
          "name": "tokenId",
          "type": "uint256"
        }
      ],
      "name": "approve",
      "outputs": [],
      "stateMutability": "nonpayable",
      "type": "function"
    },
    {
      "inputs": [
        {
          "internalType": "address",
          "name": "owner",
          "type": "address"
        }
      ],
      "name": "balanceOf",
      "outputs": [
        {
          "internalType": "uint256",
          "name": "",
          "type": "uint256"
        }
      ],
      "stateMutability": "view",
      "type": "function"
    },
    {
      "inputs": [
        {
          "internalType": "uint256",
          "name": "tokenId",
          "type": "uint256"
        }
      ],
      "name": "getApproved",
      "outputs": [
        {
          "internalType": "address",
          "name": "",
          "type": "address"
        }
      ],
      "stateMutability": "view",
      "type": "function"
    },
    {
      "inputs": [
        {
          "internalType": "address",
          "name": "owner",
          "type": "address"
        },
        {
          "internalType": "address",
          "name": "operator",
          "type": "address"
        }
      ],
      "name": "isApprovedForAll",
      "outputs": [
        {
          "internalType": "bool",
          "name": "",
          "type": "bool"
        }
      ],
      "stateMutability": "view",
      "type": "function"
    },
    {
      "inputs": [],
      "name": "name",
      "outputs": [
        {
          "internalType": "string",
          "name": "",
          "type": "string"
        }
      ],
      "stateMutability": "view",
      "type": "function"
    },
    {
      "inputs": [
        {
          "internalType": "uint256",
          "name": "tokenId",
          "type": "uint256"
        }
      ],
      "name": "ownerOf",
      "outputs": [
        {
          "internalType": "address",
          "name": "",
          "type": "address"
        }
      ],
      "stateMutability": "view",
      "type": "function"
    },
    {
      "inputs": [
        {
          "internalType": "address",
          "name": "from",
          "type": "address"
        },
        {
          "internalType": "address",
          "name": "to",
          "type": "address"
        },
        {
          "internalType": "uint256",
          "name": "tokenId",
          "type": "uint256"
        }
      ],
      "name": "safeTransferFrom",
      "outputs": [],
      "stateMutability": "nonpayable",
      "type": "function"
    },
    {
      "inputs": [
        {
          "internalType": "address",
          "name": "from",
          "type": "address"
        },
        {
          "internalType": "address",
          "name": "to",
          "type": "address"
        },
        {
          "internalType": "uint256",
          "name": "tokenId",
          "type": "uint256"
        },
        {
          "internalType": "bytes",
          "name": "data",
          "type": "bytes"
        }
      ],
      "name": "safeTransferFrom",
      "outputs": [],
      "stateMutability": "nonpayable",
      "type": "function"
    },
    {
      "inputs": [
        {
          "internalType": "address",
          "name": "operator",
          "type": "address"
        },
        {
          "internalType": "bool",
          "name": "approved",
          "type": "bool"
        }
      ],
      "name": "setApprovalForAll",
      "outputs": [],
      "stateMutability": "nonpayable",
      "type": "function"
    },
    {
      "inputs": [
        {
          "internalType": "bytes4",
          "name": "interfaceId",
          "type": "bytes4"
        }
      ],
      "name": "supportsInterface",
      "outputs": [
        {
          "internalType": "bool",
          "name": "",
          "type": "bool"
        }
      ],
      "stateMutability": "view",
      "type": "function"
    },
    {
      "inputs": [],
      "name": "symbol",
      "outputs": [
        {
          "internalType": "string",
          "name": "",
          "type": "string"
        }
      ],
      "stateMutability": "view",
      "type": "function"
    },
    {
      "inputs": [
        {
          "internalType": "uint256",
          "name": "tokenId",
          "type": "uint256"
        }
      ],
      "name": "tokenURI",
      "outputs": [
        {
          "internalType": "string",
          "name": "",
          "type": "string"
        }
      ],
      "stateMutability": "view",
      "type": "function"
    },
    {
      "inputs": [
        {
          "internalType": "address",
          "name": "from",
          "type": "address"
        },
        {
          "internalType": "address",
          "name": "to",
          "type": "address"
        },
        {
          "internalType": "uint256",
          "name": "tokenId",
          "type": "uint256"
        }
      ],
      "name": "transferFrom",
      "outputs": [],
      "stateMutability": "nonpayable",
      "type": "function"
    },
    {
      "inputs": [
        {
          "internalType": "string",
          "name": "_tokenURI",
          "type": "string"
        }
      ],
      "name": "mintToken",
      "outputs": [],
      "stateMutability": "nonpayable",
      "type": "function"
    }
  ],
  "bytecode": "0x60a06040523480156200001157600080fd5b506040516200304e3803806200304e83398181016040528101906200003791906200016e565b6040518060400160405280600f81526020017f4e4654204d61726b6574706c61636500000000000000000000000000000000008152506040518060400160405280600481526020017f4e46544d000000000000000000000000000000000000000000000000000000008152508160009081620000b4919062000420565b508060019081620000c6919062000420565b5050508073ffffffffffffffffffffffffffffffffffffffff1660808173ffffffffffffffffffffffffffffffffffffffff16815250505062000507565b600080fd5b600073ffffffffffffffffffffffffffffffffffffffff82169050919050565b6000620001368262000109565b9050919050565b620001488162000129565b81146200015457600080fd5b50565b60008151905062000168816200013d565b92915050565b60006020828403121562000187576200018662000104565b5b6000620001978482850162000157565b91505092915050565b600081519050919050565b7f4e487b7100000000000000000000000000000000000000000000000000000000600052604160045260246000fd5b7f4e487b7100000000000000000000000000000000000000000000000000000000600052602260045260246000fd5b600060028204905060018216806200022257607f821691505b602082108103620002385762000237620001da565b5b50919050565b60008190508160005260206000209050919050565b60006020601f8301049050919050565b60008160020a8302905092915050565b600060088302620002a57fffffffffffffffffffffffffffffffffffffffffffffffffffffffffffffffff8262000263565b620002b1868362000263565b95508019841693508086168417925050509392505050565b6000819050919050565b6000819050919050565b6000620002fe620002f8620002f284620002c9565b620002d3565b620002c9565b9050919050565b6000819050919050565b6200031a83620002dd565b62000332620003298262000305565b84845462000273565b825550505050565b600090565b620003496200033a565b620003568184846200030f565b505050565b5b818110156200037e57620003726000826200033f565b6001810190506200035c565b5050565b601f821115620003cd5762000397816200023e565b620003a28462000253565b81016020851015620003b2578190505b620003ca620003c18562000253565b8301826200035b565b50505b505050565b60008160020a8304905092915050565b6000620003f560001984600802620003d2565b1980831691505092915050565b6000620004108383620003e2565b9150826002028217905092915050565b6200042b82620001a0565b67ffffffffffffffff811115620004475762000446620001ab565b5b62000453825462000209565b6200046082828562000382565b600060209050601f83116001811462000498576000841562000483578287015190505b6200048f858262000402565b865550620004ff565b601f198416620004a8866200023e565b60005b82811015620004d257848901518255600182019150602085019450602081019050620004ab565b86831015620004f25784890151620004ee601f891682620003e2565b8355505b6001600288020188555050505b505050505050565b608051612b2e6200052060003960005050612b2e6000f3fe608060405234801561001057600080fd5b5060043610610107576000357c0100000000000000000000000000000000000000000000000000000000900480636352211e116100a9578063a22cb46511610083578063a22cb46514610278578063b88d4fde14610294578063c87b56dd146102b0578063e985e9c5146102e057610107565b80636352211e146101fa57806370a082311461022a57806395d89b411461025a57610107565b8063095ea7b3116100e5578063095ea7b31461018a57806323b872dd146101a657806333eba49a146101c257806342842e0e146101de57610107565b806301ffc9a71461010c57806306fdde031461013c578063081812fc1461015a575b600080fd5b610126600480360381019061012191906118cc565b610310565b6040516101339190611914565b60405180910390f35b6101446103f2565b60405161015191906119c8565b60405180910390f35b610174600480360381019061016f9190611a20565b610484565b6040516101819190611a8e565b60405180910390f35b6101a4600480360381019061019f9190611ad5565b6104ca565b005b6101c060048036038101906101bb9190611b15565b6105e1565b005b6101dc60048036038101906101d79190611bcd565b610641565b005b6101f860048036038101906101f39190611b15565b6106b6565b005b610214600480360381019061020f9190611a20565b6106d6565b6040516102219190611a8e565b60405180910390f35b610244600480360381019061023f9190611c1a565b610787565b6040516102519190611c56565b60405180910390f35b61026261083e565b60405161026f91906119c8565b60405180910390f35b610292600480360381019061028d9190611c9d565b6108d0565b005b6102ae60048036038101906102a99190611e0d565b6108e6565b005b6102ca60048036038101906102c59190611a20565b610948565b6040516102d791906119c8565b60405180910390f35b6102fa60048036038101906102f59190611e90565b610a5a565b6040516103079190611914565b60405180910390f35b60007f80ac58cd000000000000000000000000000000000000000000000000000000007bffffffffffffffffffffffffffffffffffffffffffffffffffffffff1916827bffffffffffffffffffffffffffffffffffffffffffffffffffffffff191614806103db57507f5b5e139f000000000000000000000000000000000000000000000000000000007bffffffffffffffffffffffffffffffffffffffffffffffffffffffff1916827bffffffffffffffffffffffffffffffffffffffffffffffffffffffff1916145b806103eb57506103ea82610aee565b5b9050919050565b60606000805461040190611eff565b80601f016020809104026020016040519081016040528092919081815260200182805461042d90611eff565b801561047a5780601f1061044f5761010080835404028352916020019161047a565b820191906000526020600020905b81548152906001019060200180831161045d57829003601f168201915b5050505050905090565b600061048f82610b58565b6004600083815260200190815260200160002060009054906101000a900473ffffffffffffffffffffffffffffffffffffffff169050919050565b60006104d5826106d6565b90508073ffffffffffffffffffffffffffffffffffffffff168373ffffffffffffffffffffffffffffffffffffffff1603610545576040517f08c379a000000000000000000000000000000000000000000000000000000000815260040161053c90611fa2565b60405180910390fd5b8073ffffffffffffffffffffffffffffffffffffffff16610564610ba3565b73ffffffffffffffffffffffffffffffffffffffff16148061059357506105928161058d610ba3565b610a5a565b5b6105d2576040517f08c379a00000000000000000000000000000000000000000000000000000000081526004016105c990612034565b60405180910390fd5b6105dc8383610bab565b505050565b6105f26105ec610ba3565b82610c64565b610631576040517f08c379a0000000000000000000000000000000000000000000000000000000008152600401610628906120c6565b60405180910390fd5b61063c838383610cf9565b505050565b61064b6007610f5f565b60006106576007610f75565b90506106633382610f83565b6106b18184848080601f016020809104026020016040519081016040528093929190818152602001838380828437600081840152601f19601f82011690508083019250505050505050610fa1565b505050565b6106d1838383604051806020016040528060008152506108e6565b505050565b6000806002600084815260200190815260200160002060009054906101000a900473ffffffffffffffffffffffffffffffffffffffff169050600073ffffffffffffffffffffffffffffffffffffffff168173ffffffffffffffffffffffffffffffffffffffff160361077e576040517f08c379a000000000000000000000000000000000000000000000000000000000815260040161077590612132565b60405180910390fd5b80915050919050565b60008073ffffffffffffffffffffffffffffffffffffffff168273ffffffffffffffffffffffffffffffffffffffff16036107f7576040517f08c379a00000000000000000000000000000000000000000000000000000000081526004016107ee906121c4565b60405180910390fd5b600360008373ffffffffffffffffffffffffffffffffffffffff1673ffffffffffffffffffffffffffffffffffffffff168152602001908152602001600020549050919050565b60606001805461084d90611eff565b80601f016020809104026020016040519081016040528092919081815260200182805461087990611eff565b80156108c65780601f1061089b576101008083540402835291602001916108c6565b820191906000526020600020905b8154815290600101906020018083116108a957829003601f168201915b5050505050905090565b6108e26108db610ba3565b838361100e565b5050565b6108f76108f1610ba3565b83610c64565b610936576040517f08c379a000000000000000000000000000000000000000000000000000000000815260040161092d906120c6565b60405180910390fd5b6109428484848461117a565b50505050565b606061095382610b58565b600060066000848152602001908152602001600020805461097390611eff565b80601f016020809104026020016040519081016040528092919081815260200182805461099f90611eff565b80156109ec5780601f106109c1576101008083540402835291602001916109ec565b820191906000526020600020905b8154815290600101906020018083116109cf57829003601f168201915b5050505050905060006109fd6111d6565b90506000815103610a12578192505050610a55565b600082511115610a47578082604051602001610a2f929190612220565b60405160208183030381529060405292505050610a55565b610a50846111ed565b925050505b919050565b6000600560008473ffffffffffffffffffffffffffffffffffffffff1673ffffffffffffffffffffffffffffffffffffffff16815260200190815260200160002060008373ffffffffffffffffffffffffffffffffffffffff1673ffffffffffffffffffffffffffffffffffffffff16815260200190815260200160002060009054906101000a900460ff16905092915050565b60007f01ffc9a7000000000000000000000000000000000000000000000000000000007bffffffffffffffffffffffffffffffffffffffffffffffffffffffff1916827bffffffffffffffffffffffffffffffffffffffffffffffffffffffff1916149050919050565b610b6181611255565b610ba0576040517f08c379a0000000000000000000000000000000000000000000000000000000008152600401610b9790612132565b60405180910390fd5b50565b600033905090565b816004600083815260200190815260200160002060006101000a81548173ffffffffffffffffffffffffffffffffffffffff021916908373ffffffffffffffffffffffffffffffffffffffff160217905550808273ffffffffffffffffffffffffffffffffffffffff16610c1e836106d6565b73ffffffffffffffffffffffffffffffffffffffff167f8c5be1e5ebec7d5bd14f71427d1e84f3dd0314c0f7b2291e5b200ac8c7c3b92560405160405180910390a45050565b600080610c70836106d6565b90508073ffffffffffffffffffffffffffffffffffffffff168473ffffffffffffffffffffffffffffffffffffffff161480610cb25750610cb18185610a5a565b5b80610cf057508373ffffffffffffffffffffffffffffffffffffffff16610cd884610484565b73ffffffffffffffffffffffffffffffffffffffff16145b91505092915050565b8273ffffffffffffffffffffffffffffffffffffffff16610d19826106d6565b73ffffffffffffffffffffffffffffffffffffffff1614610d6f576040517f08c379a0000000000000000000000000000000000000000000000000000000008152600401610d66906122b6565b60405180910390fd5b600073ffffffffffffffffffffffffffffffffffffffff168273ffffffffffffffffffffffffffffffffffffffff1603610dde576040517f08c379a0000000000000000000000000000000000000000000000000000000008152600401610dd590612348565b60405180910390fd5b610de98383836112c1565b610df4600082610bab565b6001600360008573ffffffffffffffffffffffffffffffffffffffff1673ffffffffffffffffffffffffffffffffffffffff1681526020019081526020016000206000828254610e449190612397565b925050819055506001600360008473ffffffffffffffffffffffffffffffffffffffff1673ffffffffffffffffffffffffffffffffffffffff1681526020019081526020016000206000828254610e9b91906123cb565b92505081905550816002600083815260200190815260200160002060006101000a81548173ffffffffffffffffffffffffffffffffffffffff021916908373ffffffffffffffffffffffffffffffffffffffff160217905550808273ffffffffffffffffffffffffffffffffffffffff168473ffffffffffffffffffffffffffffffffffffffff167fddf252ad1be2c89b69c2b068fc378daa952ba7f163c4a11628f55a4df523b3ef60405160405180910390a4610f5a8383836112c6565b505050565b6001816000016000828254019250508190555050565b600081600001549050919050565b610f9d8282604051806020016040528060008152506112cb565b5050565b610faa82611255565b610fe9576040517f08c379a0000000000000000000000000000000000000000000000000000000008152600401610fe090612493565b60405180910390fd5b806006600084815260200190815260200160002090816110099190612665565b505050565b8173ffffffffffffffffffffffffffffffffffffffff168373ffffffffffffffffffffffffffffffffffffffff160361107c576040517f08c379a000000000000000000000000000000000000000000000000000000000815260040161107390612783565b60405180910390fd5b80600560008573ffffffffffffffffffffffffffffffffffffffff1673ffffffffffffffffffffffffffffffffffffffff16815260200190815260200160002060008473ffffffffffffffffffffffffffffffffffffffff1673ffffffffffffffffffffffffffffffffffffffff16815260200190815260200160002060006101000a81548160ff0219169083151502179055508173ffffffffffffffffffffffffffffffffffffffff168373ffffffffffffffffffffffffffffffffffffffff167f17307eab39ab6107e8899845ad3d59bd9653f200f220920489ca2b5937696c318360405161116d9190611914565b60405180910390a3505050565b611185848484610cf9565b61119184848484611326565b6111d0576040517f08c379a00000000000000000000000000000000000000000000000000000000081526004016111c790612815565b60405180910390fd5b50505050565b606060405180602001604052806000815250905090565b60606111f882610b58565b60006112026111d6565b90506000815111611222576040518060200160405280600081525061124d565b8061122c846114e5565b60405160200161123d929190612220565b6040516020818303038152906040525b915050919050565b60008073ffffffffffffffffffffffffffffffffffffffff166002600084815260200190815260200160002060009054906101000a900473ffffffffffffffffffffffffffffffffffffffff1673ffffffffffffffffffffffffffffffffffffffff1614159050919050565b505050565b505050565b6112d58383611664565b6112e26000848484611326565b611321576040517f08c379a000000000000000000000000000000000000000000000000000000000815260040161131890612815565b60405180910390fd5b505050565b60006113478473ffffffffffffffffffffffffffffffffffffffff1661183d565b156114d8578373ffffffffffffffffffffffffffffffffffffffff1663150b7a02611370610ba3565b8786866040518563ffffffff167c01000000000000000000000000000000000000000000000000000000000281526004016113ae949392919061288a565b6020604051808303816000875af19250505080156113ea57506040513d601f19601f820116820180604052508101906113e791906128eb565b60015b61146c573d806000811461141a576040519150601f19603f3d011682016040523d82523d6000602084013e61141f565b606091505b506000815103611464576040517f08c379a000000000000000000000000000000000000000000000000000000000815260040161145b90612815565b60405180910390fd5b805181602001fd5b63150b7a027c0100000000000000000000000000000000000000000000000000000000027bffffffffffffffffffffffffffffffffffffffffffffffffffffffff1916817bffffffffffffffffffffffffffffffffffffffffffffffffffffffff1916149150506114dd565b600190505b949350505050565b60606000820361152c576040518060400160405280600181526020017f3000000000000000000000000000000000000000000000000000000000000000815250905061165f565b600082905060005b6000821461155e57808061154790612918565b915050600a82611557919061298f565b9150611534565b60008167ffffffffffffffff81111561157a57611579611ce2565b5b6040519080825280601f01601f1916602001820160405280156115ac5781602001600182028036833780820191505090505b5090505b60008514611658576001826115c59190612397565b9150600a856115d491906129c0565b60306115e091906123cb565b7f010000000000000000000000000000000000000000000000000000000000000002818381518110611615576116146129f1565b5b60200101907effffffffffffffffffffffffffffffffffffffffffffffffffffffffffffff1916908160001a905350600a85611651919061298f565b94506115b0565b8093505050505b919050565b600073ffffffffffffffffffffffffffffffffffffffff168273ffffffffffffffffffffffffffffffffffffffff16036116d3576040517f08c379a00000000000000000000000000000000000000000000000000000000081526004016116ca90612a6c565b60405180910390fd5b6116dc81611255565b1561171c576040517f08c379a000000000000000000000000000000000000000000000000000000000815260040161171390612ad8565b60405180910390fd5b611728600083836112c1565b6001600360008473ffffffffffffffffffffffffffffffffffffffff1673ffffffffffffffffffffffffffffffffffffffff168152602001908152602001600020600082825461177891906123cb565b92505081905550816002600083815260200190815260200160002060006101000a81548173ffffffffffffffffffffffffffffffffffffffff021916908373ffffffffffffffffffffffffffffffffffffffff160217905550808273ffffffffffffffffffffffffffffffffffffffff16600073ffffffffffffffffffffffffffffffffffffffff167fddf252ad1be2c89b69c2b068fc378daa952ba7f163c4a11628f55a4df523b3ef60405160405180910390a4611839600083836112c6565b5050565b6000808273ffffffffffffffffffffffffffffffffffffffff163b119050919050565b6000604051905090565b600080fd5b600080fd5b60007fffffffff0000000000000000000000000000000000000000000000000000000082169050919050565b6118a981611874565b81146118b457600080fd5b50565b6000813590506118c6816118a0565b92915050565b6000602082840312156118e2576118e161186a565b5b60006118f0848285016118b7565b91505092915050565b60008115159050919050565b61190e816118f9565b82525050565b60006020820190506119296000830184611905565b92915050565b600081519050919050565b600082825260208201905092915050565b60005b8381101561196957808201518184015260208101905061194e565b83811115611978576000848401525b50505050565b6000601f19601f8301169050919050565b600061199a8261192f565b6119a4818561193a565b93506119b481856020860161194b565b6119bd8161197e565b840191505092915050565b600060208201905081810360008301526119e2818461198f565b905092915050565b6000819050919050565b6119fd816119ea565b8114611a0857600080fd5b50565b600081359050611a1a816119f4565b92915050565b600060208284031215611a3657611a3561186a565b5b6000611a4484828501611a0b565b91505092915050565b600073ffffffffffffffffffffffffffffffffffffffff82169050919050565b6000611a7882611a4d565b9050919050565b611a8881611a6d565b82525050565b6000602082019050611aa36000830184611a7f565b92915050565b611ab281611a6d565b8114611abd57600080fd5b50565b600081359050611acf81611aa9565b92915050565b60008060408385031215611aec57611aeb61186a565b5b6000611afa85828601611ac0565b9250506020611b0b85828601611a0b565b9150509250929050565b600080600060608486031215611b2e57611b2d61186a565b5b6000611b3c86828701611ac0565b9350506020611b4d86828701611ac0565b9250506040611b5e86828701611a0b565b9150509250925092565b600080fd5b600080fd5b600080fd5b60008083601f840112611b8d57611b8c611b68565b5b8235905067ffffffffffffffff811115611baa57611ba9611b6d565b5b602083019150836001820283011115611bc657611bc5611b72565b5b9250929050565b60008060208385031215611be457611be361186a565b5b600083013567ffffffffffffffff811115611c0257611c0161186f565b5b611c0e85828601611b77565b92509250509250929050565b600060208284031215611c3057611c2f61186a565b5b6000611c3e84828501611ac0565b91505092915050565b611c50816119ea565b82525050565b6000602082019050611c6b6000830184611c47565b92915050565b611c7a816118f9565b8114611c8557600080fd5b50565b600081359050611c9781611c71565b92915050565b60008060408385031215611cb457611cb361186a565b5b6000611cc285828601611ac0565b9250506020611cd385828601611c88565b9150509250929050565b600080fd5b7f4e487b7100000000000000000000000000000000000000000000000000000000600052604160045260246000fd5b611d1a8261197e565b810181811067ffffffffffffffff82111715611d3957611d38611ce2565b5b80604052505050565b6000611d4c611860565b9050611d588282611d11565b919050565b600067ffffffffffffffff821115611d7857611d77611ce2565b5b611d818261197e565b9050602081019050919050565b82818337600083830152505050565b6000611db0611dab84611d5d565b611d42565b905082815260208101848484011115611dcc57611dcb611cdd565b5b611dd7848285611d8e565b509392505050565b600082601f830112611df457611df3611b68565b5b8135611e04848260208601611d9d565b91505092915050565b60008060008060808587031215611e2757611e2661186a565b5b6000611e3587828801611ac0565b9450506020611e4687828801611ac0565b9350506040611e5787828801611a0b565b925050606085013567ffffffffffffffff811115611e7857611e7761186f565b5b611e8487828801611ddf565b91505092959194509250565b60008060408385031215611ea757611ea661186a565b5b6000611eb585828601611ac0565b9250506020611ec685828601611ac0565b9150509250929050565b7f4e487b7100000000000000000000000000000000000000000000000000000000600052602260045260246000fd5b60006002820490506001821680611f1757607f821691505b602082108103611f2a57611f29611ed0565b5b50919050565b7f4552433732313a20617070726f76616c20746f2063757272656e74206f776e6560008201527f7200000000000000000000000000000000000000000000000000000000000000602082015250565b6000611f8c60218361193a565b9150611f9782611f30565b604082019050919050565b60006020820190508181036000830152611fbb81611f7f565b9050919050565b7f4552433732313a20617070726f76652063616c6c6572206973206e6f7420746f60008201527f6b656e206f776e6572206e6f7220617070726f76656420666f7220616c6c0000602082015250565b600061201e603e8361193a565b915061202982611fc2565b604082019050919050565b6000602082019050818103600083015261204d81612011565b9050919050565b7f4552433732313a2063616c6c6572206973206e6f7420746f6b656e206f776e6560008201527f72206e6f7220617070726f766564000000000000000000000000000000000000602082015250565b60006120b0602e8361193a565b91506120bb82612054565b604082019050919050565b600060208201905081810360008301526120df816120a3565b9050919050565b7f4552433732313a20696e76616c696420746f6b656e2049440000000000000000600082015250565b600061211c60188361193a565b9150612127826120e6565b602082019050919050565b6000602082019050818103600083015261214b8161210f565b9050919050565b7f4552433732313a2061646472657373207a65726f206973206e6f74206120766160008201527f6c6964206f776e65720000000000000000000000000000000000000000000000602082015250565b60006121ae60298361193a565b91506121b982612152565b604082019050919050565b600060208201905081810360008301526121dd816121a1565b9050919050565b600081905092915050565b60006121fa8261192f565b61220481856121e4565b935061221481856020860161194b565b80840191505092915050565b600061222c82856121ef565b915061223882846121ef565b91508190509392505050565b7f4552433732313a207472616e736665722066726f6d20696e636f72726563742060008201527f6f776e6572000000000000000000000000000000000000000000000000000000602082015250565b60006122a060258361193a565b91506122ab82612244565b604082019050919050565b600060208201905081810360008301526122cf81612293565b9050919050565b7f4552433732313a207472616e7366657220746f20746865207a65726f2061646460008201527f7265737300000000000000000000000000000000000000000000000000000000602082015250565b600061233260248361193a565b915061233d826122d6565b604082019050919050565b6000602082019050818103600083015261236181612325565b9050919050565b7f4e487b7100000000000000000000000000000000000000000000000000000000600052601160045260246000fd5b60006123a2826119ea565b91506123ad836119ea565b9250828210156123c0576123bf612368565b5b828203905092915050565b60006123d6826119ea565b91506123e1836119ea565b9250827fffffffffffffffffffffffffffffffffffffffffffffffffffffffffffffffff0382111561241657612415612368565b5b828201905092915050565b7f45524337323155524953746f726167653a2055524920736574206f66206e6f6e60008201527f6578697374656e7420746f6b656e000000000000000000000000000000000000602082015250565b600061247d602e8361193a565b915061248882612421565b604082019050919050565b600060208201905081810360008301526124ac81612470565b9050919050565b60008190508160005260206000209050919050565b60006020601f8301049050919050565b60008160020a8302905092915050565b6000600883026125187fffffffffffffffffffffffffffffffffffffffffffffffffffffffffffffffff826124d8565b61252286836124d8565b95508019841693508086168417925050509392505050565b6000819050919050565b600061255f61255a612555846119ea565b61253a565b6119ea565b9050919050565b6000819050919050565b61257983612544565b61258d61258582612566565b8484546124e8565b825550505050565b600090565b6125a2612595565b6125ad818484612570565b505050565b5b818110156125d1576125c660008261259a565b6001810190506125b3565b5050565b601f821115612616576125e7816124b3565b6125f0846124c8565b810160208510156125ff578190505b61261361260b856124c8565b8301826125b2565b50505b505050565b60008160020a8304905092915050565b600061263c6000198460080261261b565b1980831691505092915050565b6000612655838361262b565b9150826002028217905092915050565b61266e8261192f565b67ffffffffffffffff81111561268757612686611ce2565b5b6126918254611eff565b61269c8282856125d5565b600060209050601f8311600181146126cf57600084156126bd578287015190505b6126c78582612649565b86555061272f565b601f1984166126dd866124b3565b60005b82811015612705578489015182556001820191506020850194506020810190506126e0565b86831015612722578489015161271e601f89168261262b565b8355505b6001600288020188555050505b505050505050565b7f4552433732313a20617070726f766520746f2063616c6c657200000000000000600082015250565b600061276d60198361193a565b915061277882612737565b602082019050919050565b6000602082019050818103600083015261279c81612760565b9050919050565b7f4552433732313a207472616e7366657220746f206e6f6e20455243373231526560008201527f63656976657220696d706c656d656e7465720000000000000000000000000000602082015250565b60006127ff60328361193a565b915061280a826127a3565b604082019050919050565b6000602082019050818103600083015261282e816127f2565b9050919050565b600081519050919050565b600082825260208201905092915050565b600061285c82612835565b6128668185612840565b935061287681856020860161194b565b61287f8161197e565b840191505092915050565b600060808201905061289f6000830187611a7f565b6128ac6020830186611a7f565b6128b96040830185611c47565b81810360608301526128cb8184612851565b905095945050505050565b6000815190506128e5816118a0565b92915050565b6000602082840312156129015761290061186a565b5b600061290f848285016128d6565b91505092915050565b6000612923826119ea565b91507fffffffffffffffffffffffffffffffffffffffffffffffffffffffffffffffff820361295557612954612368565b5b600182019050919050565b7f4e487b7100000000000000000000000000000000000000000000000000000000600052601260045260246000fd5b600061299a826119ea565b91506129a5836119ea565b9250826129b5576129b4612960565b5b828204905092915050565b60006129cb826119ea565b91506129d6836119ea565b9250826129e6576129e5612960565b5b828206905092915050565b7f4e487b7100000000000000000000000000000000000000000000000000000000600052603260045260246000fd5b7f4552433732313a206d696e7420746f20746865207a65726f2061646472657373600082015250565b6000612a5660208361193a565b9150612a6182612a20565b602082019050919050565b60006020820190508181036000830152612a8581612a49565b9050919050565b7f4552433732313a20746f6b656e20616c7265616479206d696e74656400000000600082015250565b6000612ac2601c8361193a565b9150612acd82612a8c565b602082019050919050565b60006020820190508181036000830152612af181612ab5565b905091905056fea264697066735822122097e8f478c7b2569d07ea849a4356c7ab618beca11898198467b132523eb8c65764736f6c634300080f0033",
  "immutableReferences": {},
  "source": "// SPDX-License-Identifier: MIT\npragma solidity ^0.8.15;\n\nimport \"@openzeppelin/contracts/token/ERC721/extensions/ERC721URIStorage.sol\";\nimport \"@openzeppelin/contracts/utils/Counters.sol\";\n\ncontract NFT is ERC721URIStorage {\n    using Counters for Counters.Counter;\n    /**\n     * @dev Using counters for keep track of minted token ids\n     */\n    Counters.Counter private _tokenIds;\n\n    /**\n     * @dev Keep track of NFTMarketplace address which is immutable\n     */\n    address immutable marketplaceAddress;\n\n    /**\n     * @dev Function which mint tokens to the minterb and set the URL to token id\n     * @param _tokenURI: The URL of the IPFS file\n     */\n    function mintToken(string calldata _tokenURI) external {\n        _tokenIds.increment();\n        uint256 newTokenId = _tokenIds.current();\n        _safeMint(msg.sender, newTokenId);\n        _setTokenURI(newTokenId, _tokenURI);\n    }\n\n    /**\n     * @dev Assigning the Marketplace contract address and giving name and symbol to Contract\n     * @param _marketplaceAddress: The Address of the marketplace\n     */\n    constructor(address _marketplaceAddress) ERC721(\"NFT Marketplace\", \"NFTM\"){\n        marketplaceAddress = _marketplaceAddress;\n    }\n}",
  "sourcePath": "/Volumes/Others/Web3Projects/nftmarketplace/contracts/NFT.sol",
  "compiler": {
    "name": "solc",
    "version": "0.8.15+commit.e14f2714.Emscripten.clang"
  },
  "schemaVersion": "3.4.8",
  "updatedAt": "2022-08-20T16:50:19.040Z",
  "devdoc": {
    "kind": "dev",
    "methods": {
      "approve(address,uint256)": {
        "details": "See {IERC721-approve}."
      },
      "balanceOf(address)": {
        "details": "See {IERC721-balanceOf}."
      },
      "constructor": {
        "details": "Assigning the Marketplace contract address and giving name and symbol to Contract",
        "params": {
          "_marketplaceAddress": ": The Address of the marketplace"
        }
      },
      "getApproved(uint256)": {
        "details": "See {IERC721-getApproved}."
      },
      "isApprovedForAll(address,address)": {
        "details": "See {IERC721-isApprovedForAll}."
      },
      "mintToken(string)": {
        "details": "Function which mint tokens to the minterb and set the URL to token id",
        "params": {
          "_tokenURI": ": The URL of the IPFS file"
        }
      },
      "name()": {
        "details": "See {IERC721Metadata-name}."
      },
      "ownerOf(uint256)": {
        "details": "See {IERC721-ownerOf}."
      },
      "safeTransferFrom(address,address,uint256)": {
        "details": "See {IERC721-safeTransferFrom}."
      },
      "safeTransferFrom(address,address,uint256,bytes)": {
        "details": "See {IERC721-safeTransferFrom}."
      },
      "setApprovalForAll(address,bool)": {
        "details": "See {IERC721-setApprovalForAll}."
      },
      "supportsInterface(bytes4)": {
        "details": "See {IERC165-supportsInterface}."
      },
      "symbol()": {
        "details": "See {IERC721Metadata-symbol}."
      },
      "tokenURI(uint256)": {
        "details": "See {IERC721Metadata-tokenURI}."
      },
      "transferFrom(address,address,uint256)": {
        "details": "See {IERC721-transferFrom}."
      }
    },
    "stateVariables": {
      "_tokenIds": {
        "details": "Using counters for keep track of minted token ids"
      },
      "marketplaceAddress": {
        "details": "Keep track of NFTMarketplace address which is immutable"
      }
    },
    "version": 1
  },
  "userdoc": {
    "kind": "user",
    "methods": {},
    "version": 1
  }
}