{
  "contractName": "NFTMarketplace",
  "abi": [
    {
      "inputs": [],
      "stateMutability": "nonpayable",
      "type": "constructor"
    },
    {
      "inputs": [],
      "name": "getListingFee",
      "outputs": [
        {
          "internalType": "uint256",
          "name": "",
          "type": "uint256"
        }
      ],
      "stateMutability": "view",
      "type": "function",
      "constant": true
    },
    {
      "inputs": [
        {
          "internalType": "uint256",
          "name": "_newFee",
          "type": "uint256"
        }
      ],
      "name": "updateListingFee",
      "outputs": [],
      "stateMutability": "nonpayable",
      "type": "function"
    },
    {
      "inputs": [],
      "name": "getAllMarketItems",
      "outputs": [
        {
          "components": [
            {
              "internalType": "uint256",
              "name": "itemId",
              "type": "uint256"
            },
            {
              "internalType": "uint256",
              "name": "tokenId",
              "type": "uint256"
            },
            {
              "internalType": "address",
              "name": "nftContract",
              "type": "address"
            },
            {
              "internalType": "address payable",
              "name": "seller",
              "type": "address"
            },
            {
              "internalType": "address payable",
              "name": "owner",
              "type": "address"
            },
            {
              "internalType": "uint256",
              "name": "price",
              "type": "uint256"
            },
            {
              "internalType": "enum NFTMarketplace.NFTStatus",
              "name": "status",
              "type": "uint8"
            }
          ],
          "internalType": "struct NFTMarketplace.MarketItem[]",
          "name": "",
          "type": "tuple[]"
        }
      ],
      "stateMutability": "view",
      "type": "function",
      "constant": true
    },
    {
      "inputs": [
        {
          "internalType": "address",
          "name": "_nftContract",
          "type": "address"
        },
        {
          "internalType": "uint256",
          "name": "_tokenId",
          "type": "uint256"
        },
        {
          "internalType": "uint256",
          "name": "_price",
          "type": "uint256"
        }
      ],
      "name": "createMarketItem",
      "outputs": [],
      "stateMutability": "payable",
      "type": "function",
      "payable": true
    },
    {
      "inputs": [
        {
          "internalType": "uint256",
          "name": "_itemId",
          "type": "uint256"
        }
      ],
      "name": "listMarketItem",
      "outputs": [],
      "stateMutability": "nonpayable",
      "type": "function"
    },
    {
      "inputs": [
        {
          "internalType": "uint256",
          "name": "_itemId",
          "type": "uint256"
        }
      ],
      "name": "delistMarketItem",
      "outputs": [],
      "stateMutability": "nonpayable",
      "type": "function"
    },
    {
      "inputs": [
        {
          "internalType": "uint256",
          "name": "_itemId",
          "type": "uint256"
        }
      ],
      "name": "buyMarketItem",
      "outputs": [],
      "stateMutability": "payable",
      "type": "function",
      "payable": true
    }
  ],
  "bytecode": "0x60806040526658d15e1762800060035534801561001b57600080fd5b50600160008190555033600260006101000a81548173ffffffffffffffffffffffffffffffffffffffff021916908373ffffffffffffffffffffffffffffffffffffffff160217905550611fd0806100746000396000f3fe60806040526004361061008d576000357c010000000000000000000000000000000000000000000000000000000090048063b8fe6abe1161006b578063b8fe6abe146100f3578063c68a0e161461011e578063f16d376c14610147578063f79d91ae146101725761008d565b806307c2c31314610092578063351901c3146100bb57806358eb2df5146100d7575b600080fd5b34801561009e57600080fd5b506100b960048036038101906100b4919061159a565b61019b565b005b6100d560048036038101906100d0919061159a565b6105a6565b005b6100f160048036038101906100ec9190611625565b6108ff565b005b3480156100ff57600080fd5b50610108610c28565b6040516101159190611687565b60405180910390f35b34801561012a57600080fd5b506101456004803603810190610140919061159a565b610c32565b005b34801561015357600080fd5b5061015c610fec565b6040516101699190611895565b60405180910390f35b34801561017e57600080fd5b506101996004803603810190610194919061159a565b61122b565b005b803373ffffffffffffffffffffffffffffffffffffffff166004600083815260200190815260200160002060040160009054906101000a900473ffffffffffffffffffffffffffffffffffffffff1673ffffffffffffffffffffffffffffffffffffffff1614610240576040517f08c379a00000000000000000000000000000000000000000000000000000000081526004016102379061193a565b60405180910390fd5b81600060038111156102555761025461170d565b5b6004600083815260200190815260200160002060060160009054906101000a900460ff16600381111561028b5761028a61170d565b5b14806102dd57506003808111156102a5576102a461170d565b5b6004600083815260200190815260200160002060060160009054906101000a900460ff1660038111156102db576102da61170d565b5b145b61031c576040517f08c379a0000000000000000000000000000000000000000000000000000000008152600401610313906119cc565b60405180910390fd5b600260005403610361576040517f08c379a000000000000000000000000000000000000000000000000000000000815260040161035890611a38565b60405180910390fd5b600260008190555060006004600085815260200190815260200160002090508060020160009054906101000a900473ffffffffffffffffffffffffffffffffffffffff1673ffffffffffffffffffffffffffffffffffffffff1663095ea7b33083600101546040518363ffffffff167c01000000000000000000000000000000000000000000000000000000000281526004016103ff929190611a67565b600060405180830381600087803b15801561041957600080fd5b505af115801561042d573d6000803e3d6000fd5b505050508060020160009054906101000a900473ffffffffffffffffffffffffffffffffffffffff1673ffffffffffffffffffffffffffffffffffffffff166323b872dd333084600101546040518463ffffffff167c01000000000000000000000000000000000000000000000000000000000281526004016104b293929190611a90565b600060405180830381600087803b1580156104cc57600080fd5b505af11580156104e0573d6000803e3d6000fd5b5050505060018160060160006101000a81548160ff0219169083600381111561050c5761050b61170d565b5b0217905550338160030160006101000a81548173ffffffffffffffffffffffffffffffffffffffff021916908373ffffffffffffffffffffffffffffffffffffffff16021790555060008160040160006101000a81548173ffffffffffffffffffffffffffffffffffffffff021916908373ffffffffffffffffffffffffffffffffffffffff160217905550506001600081905550505050565b80600160038111156105bb576105ba61170d565b5b6004600083815260200190815260200160002060060160009054906101000a900460ff1660038111156105f1576105f061170d565b5b14610631576040517f08c379a000000000000000000000000000000000000000000000000000000000815260040161062890611b39565b60405180910390fd5b813460046000838152602001908152602001600020600501541461068a576040517f08c379a000000000000000000000000000000000000000000000000000000000815260040161068190611bcb565b60405180910390fd5b823373ffffffffffffffffffffffffffffffffffffffff166004600083815260200190815260200160002060030160009054906101000a900473ffffffffffffffffffffffffffffffffffffffff1673ffffffffffffffffffffffffffffffffffffffff160361072f576040517f08c379a000000000000000000000000000000000000000000000000000000000815260040161072690611c5d565b60405180910390fd5b600260005403610774576040517f08c379a000000000000000000000000000000000000000000000000000000000815260040161076b90611a38565b60405180910390fd5b6002600081905550600060046000868152602001908152602001600020905060008160030160009054906101000a900473ffffffffffffffffffffffffffffffffffffffff16905060028260060160006101000a81548160ff021916908360038111156107e4576107e361170d565b5b0217905550338260040160006101000a81548173ffffffffffffffffffffffffffffffffffffffff021916908373ffffffffffffffffffffffffffffffffffffffff16021790555060008260030160006101000a81548173ffffffffffffffffffffffffffffffffffffffff021916908373ffffffffffffffffffffffffffffffffffffffff1602179055508073ffffffffffffffffffffffffffffffffffffffff166108fc83600501549081150290604051600060405180830381858888f193505050501580156108ba573d6000803e3d6000fd5b506108ef868360020160009054906101000a900473ffffffffffffffffffffffffffffffffffffffff163385600101546112c5565b5050600160008190555050505050565b6003543414610943576040517f08c379a000000000000000000000000000000000000000000000000000000000815260040161093a90611cef565b60405180910390fd5b8060008111610987576040517f08c379a000000000000000000000000000000000000000000000000000000000815260040161097e90611d81565b60405180910390fd5b6002600054036109cc576040517f08c379a00000000000000000000000000000000000000000000000000000000081526004016109c390611a38565b60405180910390fd5b60026000819055506109de60016114aa565b60006109ea60016114c0565b90506040518060e001604052808281526020018581526020018673ffffffffffffffffffffffffffffffffffffffff168152602001600073ffffffffffffffffffffffffffffffffffffffff1681526020013373ffffffffffffffffffffffffffffffffffffffff16815260200184815260200160006003811115610a7257610a7161170d565b5b81525060046000838152602001908152602001600020600082015181600001556020820151816001015560408201518160020160006101000a81548173ffffffffffffffffffffffffffffffffffffffff021916908373ffffffffffffffffffffffffffffffffffffffff16021790555060608201518160030160006101000a81548173ffffffffffffffffffffffffffffffffffffffff021916908373ffffffffffffffffffffffffffffffffffffffff16021790555060808201518160040160006101000a81548173ffffffffffffffffffffffffffffffffffffffff021916908373ffffffffffffffffffffffffffffffffffffffff16021790555060a0820151816005015560c08201518160060160006101000a81548160ff02191690836003811115610ba657610ba561170d565b5b0217905550905050600260009054906101000a900473ffffffffffffffffffffffffffffffffffffffff1673ffffffffffffffffffffffffffffffffffffffff166108fc6003549081150290604051600060405180830381858888f19350505050158015610c18573d6000803e3d6000fd5b5050600160008190555050505050565b6000600354905090565b803373ffffffffffffffffffffffffffffffffffffffff166004600083815260200190815260200160002060040160009054906101000a900473ffffffffffffffffffffffffffffffffffffffff1673ffffffffffffffffffffffffffffffffffffffff1614610cd7576040517f08c379a0000000000000000000000000000000000000000000000000000000008152600401610cce9061193a565b60405180910390fd5b8160016003811115610cec57610ceb61170d565b5b6004600083815260200190815260200160002060060160009054906101000a900460ff166003811115610d2257610d2161170d565b5b14610d62576040517f08c379a0000000000000000000000000000000000000000000000000000000008152600401610d5990611b39565b60405180910390fd5b600260005403610da7576040517f08c379a0000000000000000000000000000000000000000000000000000000008152600401610d9e90611a38565b60405180910390fd5b6002600081905550600060046000858152602001908152602001600020905060038160060160006101000a81548160ff02191690836003811115610dee57610ded61170d565b5b021790555060008160030160006101000a81548173ffffffffffffffffffffffffffffffffffffffff021916908373ffffffffffffffffffffffffffffffffffffffff160217905550338160040160006101000a81548173ffffffffffffffffffffffffffffffffffffffff021916908373ffffffffffffffffffffffffffffffffffffffff1602179055508060020160009054906101000a900473ffffffffffffffffffffffffffffffffffffffff1673ffffffffffffffffffffffffffffffffffffffff1663095ea7b33383600101546040518363ffffffff167c0100000000000000000000000000000000000000000000000000000000028152600401610ef9929190611a67565b600060405180830381600087803b158015610f1357600080fd5b505af1158015610f27573d6000803e3d6000fd5b505050508060020160009054906101000a900473ffffffffffffffffffffffffffffffffffffffff1673ffffffffffffffffffffffffffffffffffffffff166323b872dd303384600101546040518463ffffffff167c0100000000000000000000000000000000000000000000000000000000028152600401610fac93929190611a90565b600060405180830381600087803b158015610fc657600080fd5b505af1158015610fda573d6000803e3d6000fd5b50505050506001600081905550505050565b60606000610ffa60016114c0565b90506000808267ffffffffffffffff81111561101957611018611da1565b5b60405190808252806020026020018201604052801561105257816020015b61103f6114ce565b8152602001906001900390816110375790505b5090506000600190505b838111611221576000600460008381526020019081526020016000206040518060e001604052908160008201548152602001600182015481526020016002820160009054906101000a900473ffffffffffffffffffffffffffffffffffffffff1673ffffffffffffffffffffffffffffffffffffffff1673ffffffffffffffffffffffffffffffffffffffff1681526020016003820160009054906101000a900473ffffffffffffffffffffffffffffffffffffffff1673ffffffffffffffffffffffffffffffffffffffff1673ffffffffffffffffffffffffffffffffffffffff1681526020016004820160009054906101000a900473ffffffffffffffffffffffffffffffffffffffff1673ffffffffffffffffffffffffffffffffffffffff1673ffffffffffffffffffffffffffffffffffffffff168152602001600582015481526020016006820160009054906101000a900460ff1660038111156111c8576111c761170d565b5b60038111156111da576111d961170d565b5b815250509050808385815181106111f4576111f3611dd0565b5b6020026020010181905250838061120a90611e2e565b94505050808061121990611e2e565b91505061105c565b5080935050505090565b600260009054906101000a900473ffffffffffffffffffffffffffffffffffffffff1673ffffffffffffffffffffffffffffffffffffffff163373ffffffffffffffffffffffffffffffffffffffff16146112bb576040517f08c379a00000000000000000000000000000000000000000000000000000000081526004016112b290611ee8565b60405180910390fd5b8060038190555050565b83600260038111156112da576112d961170d565b5b6004600083815260200190815260200160002060060160009054906101000a900460ff1660038111156113105761130f61170d565b5b14611350576040517f08c379a000000000000000000000000000000000000000000000000000000000815260040161134790611f7a565b60405180910390fd5b60006004600087815260200190815260200160002060060160006101000a81548160ff0219169083600381111561138a5761138961170d565b5b02179055508373ffffffffffffffffffffffffffffffffffffffff1663095ea7b384846040518363ffffffff167c01000000000000000000000000000000000000000000000000000000000281526004016113e6929190611a67565b600060405180830381600087803b15801561140057600080fd5b505af1158015611414573d6000803e3d6000fd5b505050508373ffffffffffffffffffffffffffffffffffffffff166323b872dd3085856040518463ffffffff167c010000000000000000000000000000000000000000000000000000000002815260040161147193929190611a90565b600060405180830381600087803b15801561148b57600080fd5b505af115801561149f573d6000803e3d6000fd5b505050505050505050565b6001816000016000828254019250508190555050565b600081600001549050919050565b6040518060e001604052806000815260200160008152602001600073ffffffffffffffffffffffffffffffffffffffff168152602001600073ffffffffffffffffffffffffffffffffffffffff168152602001600073ffffffffffffffffffffffffffffffffffffffff16815260200160008152602001600060038111156115595761155861170d565b5b81525090565b600080fd5b6000819050919050565b61157781611564565b811461158257600080fd5b50565b6000813590506115948161156e565b92915050565b6000602082840312156115b0576115af61155f565b5b60006115be84828501611585565b91505092915050565b600073ffffffffffffffffffffffffffffffffffffffff82169050919050565b60006115f2826115c7565b9050919050565b611602816115e7565b811461160d57600080fd5b50565b60008135905061161f816115f9565b92915050565b60008060006060848603121561163e5761163d61155f565b5b600061164c86828701611610565b935050602061165d86828701611585565b925050604061166e86828701611585565b9150509250925092565b61168181611564565b82525050565b600060208201905061169c6000830184611678565b92915050565b600081519050919050565b600082825260208201905092915050565b6000819050602082019050919050565b6116d781611564565b82525050565b6116e6816115e7565b82525050565b60006116f7826115c7565b9050919050565b611707816116ec565b82525050565b7f4e487b7100000000000000000000000000000000000000000000000000000000600052602160045260246000fd5b6004811061174d5761174c61170d565b5b50565b600081905061175e8261173c565b919050565b600061176e82611750565b9050919050565b61177e81611763565b82525050565b60e08201600082015161179a60008501826116ce565b5060208201516117ad60208501826116ce565b5060408201516117c060408501826116dd565b5060608201516117d360608501826116fe565b5060808201516117e660808501826116fe565b5060a08201516117f960a08501826116ce565b5060c082015161180c60c0850182611775565b50505050565b600061181e8383611784565b60e08301905092915050565b6000602082019050919050565b6000611842826116a2565b61184c81856116ad565b9350611857836116be565b8060005b8381101561188857815161186f8882611812565b975061187a8361182a565b92505060018101905061185b565b5085935050505092915050565b600060208201905081810360008301526118af8184611837565b905092915050565b600082825260208201905092915050565b7f4f6e6c794d696e7465723a20596f7520617265206e6f7420746865206d696e7460008201527f6572000000000000000000000000000000000000000000000000000000000000602082015250565b60006119246022836118b7565b915061192f826118c8565b604082019050919050565b6000602082019050818103600083015261195381611917565b9050919050565b7f5374617475734d696e7465644f7244656c69737465643a2043757272656e742060008201527f537461747573206973206e6f74204d696e746564206f7220446c697374656400602082015250565b60006119b6603f836118b7565b91506119c18261195a565b604082019050919050565b600060208201905081810360008301526119e5816119a9565b9050919050565b7f5265656e7472616e637947756172643a207265656e7472616e742063616c6c00600082015250565b6000611a22601f836118b7565b9150611a2d826119ec565b602082019050919050565b60006020820190508181036000830152611a5181611a15565b9050919050565b611a61816115e7565b82525050565b6000604082019050611a7c6000830185611a58565b611a896020830184611678565b9392505050565b6000606082019050611aa56000830186611a58565b611ab26020830185611a58565b611abf6040830184611678565b949350505050565b7f5374617475734c69737465643a2043757272656e74205374617475732069732060008201527f6e6f74204c697374656400000000000000000000000000000000000000000000602082015250565b6000611b23602a836118b7565b9150611b2e82611ac7565b604082019050919050565b60006020820190508181036000830152611b5281611b16565b9050919050565b7f427579416d6f756e7453656e743a20506c656173652073656e7420746865206360008201527f6f7272656374204e465420707269636500000000000000000000000000000000602082015250565b6000611bb56030836118b7565b9150611bc082611b59565b604082019050919050565b60006020820190508181036000830152611be481611ba8565b9050919050565b7f427579657269734e6f7453656c6c65723a20596f75206172652074686520736560008201527f6c6c657200000000000000000000000000000000000000000000000000000000602082015250565b6000611c476024836118b7565b9150611c5282611beb565b604082019050919050565b60006020820190508181036000830152611c7681611c3a565b9050919050565b7f4c697374696e67507269636553656e743a20506c656173652073656e7420746860008201527f6520636f7272656374206c697374696e67206665650000000000000000000000602082015250565b6000611cd96035836118b7565b9150611ce482611c7d565b604082019050919050565b60006020820190508181036000830152611d0881611ccc565b9050919050565b7f50726963654d6f72655468616e5a65726f3a20596f752063616e20736574207060008201527f7269636520746f207a65726f0000000000000000000000000000000000000000602082015250565b6000611d6b602c836118b7565b9150611d7682611d0f565b604082019050919050565b60006020820190508181036000830152611d9a81611d5e565b9050919050565b7f4e487b7100000000000000000000000000000000000000000000000000000000600052604160045260246000fd5b7f4e487b7100000000000000000000000000000000000000000000000000000000600052603260045260246000fd5b7f4e487b7100000000000000000000000000000000000000000000000000000000600052601160045260246000fd5b6000611e3982611564565b91507fffffffffffffffffffffffffffffffffffffffffffffffffffffffffffffffff8203611e6b57611e6a611dff565b5b600182019050919050565b7f4f6e6c794f776e65723a2046756e6374696f6e204f6e6c79206163636573736160008201527f626c65206f66206f776e65720000000000000000000000000000000000000000602082015250565b6000611ed2602c836118b7565b9150611edd82611e76565b604082019050919050565b60006020820190508181036000830152611f0181611ec5565b9050919050565b7f537461747573536f6c643a2043757272656e7420537461747573206973206e6f60008201527f74204c6973746564000000000000000000000000000000000000000000000000602082015250565b6000611f646028836118b7565b9150611f6f82611f08565b604082019050919050565b60006020820190508181036000830152611f9381611f57565b905091905056fea26469706673582212203dc0ee7b0310cf9df371d78421e8524343bdeea7655dcf4d830a94df23d8dd6464736f6c634300080f0033",
  "immutableReferences": {},
  "source": "// SPDX-License-Identifier: MIT\npragma solidity ^0.8.15;\n\nimport \"@openzeppelin/contracts/utils/Counters.sol\";\nimport \"@openZeppelin/contracts/token/ERC721/IERC721.sol\";\nimport \"@openzeppelin/contracts/security/ReentrancyGuard.sol\";\n\ncontract NFTMarketplace is ReentrancyGuard {\n    using Counters for Counters.Counter;\n\n    /**\n     * @dev the struct contains all the details about market items.\n     * @param itemId: The market item id.\n     * @param tokenId: The token id of the NFT.\n     * @param nftContract: The nft contract address.\n     * @param seller: The listed person.\n     * @param owner: The buyer of the NFT.\n     * @param price: The NFT price.\n     * @param status: The Current status of the NFT.\n     */\n    struct MarketItem {\n        uint256 itemId;\n        uint256 tokenId;\n        address nftContract;\n        address payable seller;\n        address payable owner;\n        uint256 price;\n        NFTStatus status;\n    }\n\n    /**\n     * @dev Using counters for keep track of market items.\n     */\n    Counters.Counter private _itemIds;\n\n    /**\n     * @dev Keep track of owner of the NFTMarket contract and for pay the minting fee.\n     */\n    address payable owner;\n\n    /**\n     * @dev Listing fee to list their nfts.\n     */\n    uint256 listingFee = 0.025 ether;\n\n    /**\n     * @dev Enum to keep track of the NFT status whether it's listed, delisted, sold, Owned.\n     */\n    enum NFTStatus {\n        Owned, Listed, Sold, Delisted\n    }\n\n    /**\n     * @dev Mapping between market itemId to MarketItem.\n     */\n    mapping(uint256 => MarketItem) private _itemIdToMarketItem;\n\n    /**\n     * @dev Modifier OnlyOwner checks if the msg.sender is owner or not.\n     */\n    modifier OnlyOwner(){\n        require(msg.sender == owner, \"OnlyOwner: Function Only accessable of owner\");\n        _;\n    }\n\n    /**\n     * @dev Modifier ListingPriceSent checks if the minter sends the listing fee or not.\n     */\n    modifier ListingPriceSent() {\n        require(msg.value == listingFee, \"ListingPriceSent: Please sent the correct listing fee\");\n        _;\n    }\n\n    /**\n     * @dev Modifier PriceMoreThanZero checks if the price is more than zero.\n     * @param _price: The price which we want to check.\n     */\n    modifier PriceMoreThanZero(uint256 _price){\n        require(_price > 0, \"PriceMoreThanZero: You can set price to zero\");\n        _;\n    }\n\n    /**\n     * @dev Modifier BuyAmountSent checks if the msg.value is equals to nft price.\n     * @param _itemId: The item we want to check.\n     */\n    modifier BuyAmountSent(uint256 _itemId){\n        require(_itemIdToMarketItem[_itemId].price == msg.value, \"BuyAmountSent: Please sent the correct NFT price\");\n        _;\n    }\n\n    /**\n     * @dev Modifier BuyerisNotSeller checks if the msg.value is equals to nft price.\n     * @param _itemId: The item we want to check.\n     */\n    modifier BuyerisNotSeller(uint256 _itemId){\n        require(_itemIdToMarketItem[_itemId].seller != msg.sender, \"BuyerisNotSeller: You are the seller\");\n        _;\n    }\n\n    /**\n     * @dev Modifier OnlyMinter checks if the msg.sender is current owner.\n     * @param _itemId: The token Id which we want to check.\n     */\n    modifier OnlyMinter(uint256 _itemId){\n        require(_itemIdToMarketItem[_itemId].owner == msg.sender, \"OnlyMinter: You are not the minter\");\n        _;\n    }\n\n    /**\n     * @dev Modifier StatusOwnedOrDelisted checks if the marketItem status is Owned or Delisted.\n     * @param _itemId: The item id.\n     */\n    modifier StatusOwnedOrDelisted(uint256 _itemId){\n        require(\n            (_itemIdToMarketItem[_itemId].status == NFTStatus.Owned) || (_itemIdToMarketItem[_itemId].status == NFTStatus.Delisted), \n            \"StatusMintedOrDelisted: Current Status is not Minted or Dlisted\");\n        _;\n    }\n\n    /**\n     * @dev Modifier StatusListed checks if the marketItem status is Listed.\n     * @param _itemId: The item id.\n     */\n    modifier StatusListed(uint256 _itemId){\n        require( _itemIdToMarketItem[_itemId].status == NFTStatus.Listed,  \"StatusListed: Current Status is not Listed\");\n        _;\n    }\n\n    /**\n     * @dev Modifier StatusSold checks if the marketItem status is Listed.\n     * @param _itemId: The item id.\n     */\n    modifier StatusSold(uint256 _itemId){\n        require( _itemIdToMarketItem[_itemId].status == NFTStatus.Sold,  \"StatusSold: Current Status is not Listed\");\n        _;\n    }\n\n    /**\n     * @dev Setting the owner to contract deployer.\n     */\n    constructor(){\n        owner = payable(msg.sender);\n    }\n\n    /**\n     * @dev Returns the listing fee.\n     */\n    function getListingFee() external view returns(uint256){\n        return listingFee;\n    }\n\n    /**\n     * @dev Updating the listing fee which only applicable to owner.\n     * @param _newFee: The new fee of the listing price.\n     */\n    function updateListingFee(uint256 _newFee) external OnlyOwner {\n        listingFee = _newFee;\n    }\n\n    /**\n     * @dev Geiing all the marketItems\n     */\n    function getAllMarketItems() external view returns(MarketItem[] memory){\n        uint256 totalItems = _itemIds.current();\n        uint256 marketItemsArrayIndex;\n        MarketItem[] memory marketItems = new MarketItem[](totalItems);\n        for(uint256 loopIndex = 1; loopIndex <= totalItems; loopIndex++){\n            MarketItem memory marketItem = _itemIdToMarketItem[loopIndex];\n            marketItems[marketItemsArrayIndex] = marketItem;\n            marketItemsArrayIndex++;\n        }\n        return marketItems;\n    }\n\n    /**\n     * @dev Creating marketitem.\n     * @param _nftContract: The NFT contract address.\n     * @param _price: The price of the NFT.\n     * @param _tokenId: The NFT tokenId.\n     */\n    function createMarketItem(address _nftContract, uint256 _tokenId, uint256 _price)\n        external payable ListingPriceSent PriceMoreThanZero(_price) nonReentrant {\n        _itemIds.increment();\n        uint256 newItemId = _itemIds.current();\n\n        _itemIdToMarketItem[newItemId] = MarketItem(\n            newItemId, _tokenId, _nftContract, payable(address(0)),\n            payable(msg.sender), _price, NFTStatus.Owned\n        );\n\n        owner.transfer(listingFee);\n    }\n\n    /**\n     * @dev Lising Marketitem.\n     * @param _itemId: The itemId.\n     */\n    function listMarketItem(uint256 _itemId)\n        external OnlyMinter(_itemId) StatusOwnedOrDelisted(_itemId) nonReentrant {\n            MarketItem storage marketItem =  _itemIdToMarketItem[_itemId];\n            IERC721(marketItem.nftContract).approve(address(this), marketItem.tokenId);\n            IERC721(marketItem.nftContract).transferFrom(msg.sender, address(this), marketItem.tokenId);\n\n            marketItem.status = NFTStatus.Listed;\n            marketItem.seller = payable(msg.sender);\n            marketItem.owner = payable(address(0));\n    }\n\n    /**\n     * @dev Delist MarketItem.\n     * @param _itemId: The item id.\n     */\n    function delistMarketItem(uint256 _itemId)\n        external OnlyMinter(_itemId) StatusListed(_itemId) nonReentrant {\n        \n        MarketItem storage marketItem = _itemIdToMarketItem[_itemId];\n        marketItem.status = NFTStatus.Delisted;\n        marketItem.seller = payable(address(0));\n        marketItem.owner = payable(msg.sender);\n\n        IERC721(marketItem.nftContract).approve(msg.sender, marketItem.tokenId);\n        IERC721(marketItem.nftContract).transferFrom(address(this), msg.sender, marketItem.tokenId);\n    }\n\n    /**\n     * @dev buy nfts.\n     * @param _itemId: The market item which want to buy.\n     */\n    function buyMarketItem(uint _itemId)\n        external StatusListed(_itemId) BuyAmountSent(_itemId) BuyerisNotSeller(_itemId) nonReentrant payable {\n        \n        MarketItem storage marketItem = _itemIdToMarketItem[_itemId];\n        address payable seller = marketItem.seller;\n\n        marketItem.status = NFTStatus.Sold;\n        marketItem.owner = payable(msg.sender);\n        marketItem.seller = payable(address(0));\n        seller.transfer(marketItem.price);\n\n        _approveBuyerForFurtherProcess(_itemId, marketItem.nftContract, msg.sender, marketItem.tokenId);\n    }\n\n    /**\n     * @dev Helper function for further transacion for buyer.\n     * @param _itemId: The market item.\n     * @param _nftContract: The Nft contract.\n     * @param _owner: The new owner of the nft.\n     * @param _tokenId: The token id of the NFT.\n     */\n    function _approveBuyerForFurtherProcess(uint256 _itemId, address _nftContract, address _owner, uint256 _tokenId) \n        private StatusSold(_itemId) {\n        \n        _itemIdToMarketItem[_itemId].status = NFTStatus.Owned;\n        IERC721(_nftContract).approve(_owner, _tokenId);\n        IERC721(_nftContract).transferFrom(address(this), _owner, _tokenId);\n    }\n}",
  "sourcePath": "/Volumes/Others/Web3Projects/nftmarketplace/contracts/NFTMarketplace.sol",
  "compiler": {
    "name": "solc",
    "version": "0.8.15+commit.e14f2714.Emscripten.clang"
  },
  "schemaVersion": "3.4.8",
  "updatedAt": "2022-08-20T19:24:33.153Z",
  "networkType": "ethereum",
  "devdoc": {
    "kind": "dev",
    "methods": {
      "buyMarketItem(uint256)": {
        "details": "buy nfts.",
        "params": {
          "_itemId": ": The market item which want to buy."
        }
      },
      "constructor": {
        "details": "Setting the owner to contract deployer."
      },
      "createMarketItem(address,uint256,uint256)": {
        "details": "Creating marketitem.",
        "params": {
          "_nftContract": ": The NFT contract address.",
          "_price": ": The price of the NFT.",
          "_tokenId": ": The NFT tokenId."
        }
      },
      "delistMarketItem(uint256)": {
        "details": "Delist MarketItem.",
        "params": {
          "_itemId": ": The item id."
        }
      },
      "getAllMarketItems()": {
        "details": "Geiing all the marketItems"
      },
      "getListingFee()": {
        "details": "Returns the listing fee."
      },
      "listMarketItem(uint256)": {
        "details": "Lising Marketitem.",
        "params": {
          "_itemId": ": The itemId."
        }
      },
      "updateListingFee(uint256)": {
        "details": "Updating the listing fee which only applicable to owner.",
        "params": {
          "_newFee": ": The new fee of the listing price."
        }
      }
    },
    "stateVariables": {
      "_itemIdToMarketItem": {
        "details": "Mapping between market itemId to MarketItem."
      },
      "_itemIds": {
        "details": "Using counters for keep track of market items."
      },
      "listingFee": {
        "details": "Listing fee to list their nfts."
      },
      "owner": {
        "details": "Keep track of owner of the NFTMarket contract and for pay the minting fee."
      }
    },
    "version": 1
  },
  "userdoc": {
    "kind": "user",
    "methods": {},
    "version": 1
  }
}