{
  "contractName": "NFTMarketplace",
  "abi": [
    {
      "inputs": [],
      "stateMutability": "nonpayable",
      "type": "constructor"
    },
    {
      "inputs": [],
      "name": "getListingFee",
      "outputs": [
        {
          "internalType": "uint256",
          "name": "",
          "type": "uint256"
        }
      ],
      "stateMutability": "view",
      "type": "function",
      "constant": true
    },
    {
      "inputs": [
        {
          "internalType": "uint256",
          "name": "_newFee",
          "type": "uint256"
        }
      ],
      "name": "updateListingFee",
      "outputs": [],
      "stateMutability": "nonpayable",
      "type": "function"
    },
    {
      "inputs": [],
      "name": "getAllMarketItems",
      "outputs": [
        {
          "components": [
            {
              "internalType": "uint256",
              "name": "itemId",
              "type": "uint256"
            },
            {
              "internalType": "uint256",
              "name": "tokenId",
              "type": "uint256"
            },
            {
              "internalType": "address",
              "name": "nftContract",
              "type": "address"
            },
            {
              "internalType": "address payable",
              "name": "seller",
              "type": "address"
            },
            {
              "internalType": "address payable",
              "name": "owner",
              "type": "address"
            },
            {
              "internalType": "uint256",
              "name": "price",
              "type": "uint256"
            },
            {
              "internalType": "enum NFTMarketplace.NFTStatus",
              "name": "status",
              "type": "uint8"
            }
          ],
          "internalType": "struct NFTMarketplace.MarketItem[]",
          "name": "",
          "type": "tuple[]"
        }
      ],
      "stateMutability": "view",
      "type": "function",
      "constant": true
    },
    {
      "inputs": [
        {
          "internalType": "address",
          "name": "_nftContract",
          "type": "address"
        },
        {
          "internalType": "uint256",
          "name": "_tokenId",
          "type": "uint256"
        },
        {
          "internalType": "uint256",
          "name": "_price",
          "type": "uint256"
        }
      ],
      "name": "createMarketItem",
      "outputs": [],
      "stateMutability": "payable",
      "type": "function",
      "payable": true
    },
    {
      "inputs": [
        {
          "internalType": "uint256",
          "name": "_itemId",
          "type": "uint256"
        }
      ],
      "name": "listMarketItem",
      "outputs": [],
      "stateMutability": "nonpayable",
      "type": "function"
    },
    {
      "inputs": [
        {
          "internalType": "uint256",
          "name": "_itemId",
          "type": "uint256"
        }
      ],
      "name": "delistMarketItem",
      "outputs": [],
      "stateMutability": "nonpayable",
      "type": "function"
    },
    {
      "inputs": [
        {
          "internalType": "uint256",
          "name": "_itemId",
          "type": "uint256"
        }
      ],
      "name": "buyMarketItem",
      "outputs": [],
      "stateMutability": "payable",
      "type": "function",
      "payable": true
    }
  ],
  "bytecode": "0x60806040526658d15e1762800060035534801561001b57600080fd5b50600160008190555033600260006101000a81548173ffffffffffffffffffffffffffffffffffffffff021916908373ffffffffffffffffffffffffffffffffffffffff160217905550611e94806100746000396000f3fe60806040526004361061008d576000357c010000000000000000000000000000000000000000000000000000000090048063b8fe6abe1161006b578063b8fe6abe146100f3578063c68a0e161461011e578063f16d376c14610147578063f79d91ae146101725761008d565b806307c2c31314610092578063351901c3146100bb57806358eb2df5146100d7575b600080fd5b34801561009e57600080fd5b506100b960048036038101906100b49190611487565b61019b565b005b6100d560048036038101906100d09190611487565b610561565b005b6100f160048036038101906100ec9190611512565b6108ba565b005b3480156100ff57600080fd5b50610108610be3565b6040516101159190611574565b60405180910390f35b34801561012a57600080fd5b5061014560048036038101906101409190611487565b610bed565b005b34801561015357600080fd5b5061015c610f62565b6040516101699190611782565b60405180910390f35b34801561017e57600080fd5b5061019960048036038101906101949190611487565b6111a1565b005b803373ffffffffffffffffffffffffffffffffffffffff166004600083815260200190815260200160002060040160009054906101000a900473ffffffffffffffffffffffffffffffffffffffff1673ffffffffffffffffffffffffffffffffffffffff16148061026d57503373ffffffffffffffffffffffffffffffffffffffff166004600083815260200190815260200160002060030160009054906101000a900473ffffffffffffffffffffffffffffffffffffffff1673ffffffffffffffffffffffffffffffffffffffff16145b6102ac576040517f08c379a00000000000000000000000000000000000000000000000000000000081526004016102a390611827565b60405180910390fd5b81600060038111156102c1576102c06115fa565b5b6004600083815260200190815260200160002060060160009054906101000a900460ff1660038111156102f7576102f66115fa565b5b14806103495750600380811115610311576103106115fa565b5b6004600083815260200190815260200160002060060160009054906101000a900460ff166003811115610347576103466115fa565b5b145b610388576040517f08c379a000000000000000000000000000000000000000000000000000000000815260040161037f906118b9565b60405180910390fd5b6002600054036103cd576040517f08c379a00000000000000000000000000000000000000000000000000000000081526004016103c490611925565b60405180910390fd5b600260008190555060006004600085815260200190815260200160002090508060020160009054906101000a900473ffffffffffffffffffffffffffffffffffffffff1673ffffffffffffffffffffffffffffffffffffffff166323b872dd333084600101546040518463ffffffff167c010000000000000000000000000000000000000000000000000000000002815260040161046d93929190611954565b600060405180830381600087803b15801561048757600080fd5b505af115801561049b573d6000803e3d6000fd5b5050505060018160060160006101000a81548160ff021916908360038111156104c7576104c66115fa565b5b0217905550338160030160006101000a81548173ffffffffffffffffffffffffffffffffffffffff021916908373ffffffffffffffffffffffffffffffffffffffff16021790555060008160040160006101000a81548173ffffffffffffffffffffffffffffffffffffffff021916908373ffffffffffffffffffffffffffffffffffffffff160217905550506001600081905550505050565b8060016003811115610576576105756115fa565b5b6004600083815260200190815260200160002060060160009054906101000a900460ff1660038111156105ac576105ab6115fa565b5b146105ec576040517f08c379a00000000000000000000000000000000000000000000000000000000081526004016105e3906119fd565b60405180910390fd5b8134600460008381526020019081526020016000206005015414610645576040517f08c379a000000000000000000000000000000000000000000000000000000000815260040161063c90611a8f565b60405180910390fd5b823373ffffffffffffffffffffffffffffffffffffffff166004600083815260200190815260200160002060030160009054906101000a900473ffffffffffffffffffffffffffffffffffffffff1673ffffffffffffffffffffffffffffffffffffffff16036106ea576040517f08c379a00000000000000000000000000000000000000000000000000000000081526004016106e190611b21565b60405180910390fd5b60026000540361072f576040517f08c379a000000000000000000000000000000000000000000000000000000000815260040161072690611925565b60405180910390fd5b6002600081905550600060046000868152602001908152602001600020905060008160030160009054906101000a900473ffffffffffffffffffffffffffffffffffffffff16905060028260060160006101000a81548160ff0219169083600381111561079f5761079e6115fa565b5b0217905550338260040160006101000a81548173ffffffffffffffffffffffffffffffffffffffff021916908373ffffffffffffffffffffffffffffffffffffffff16021790555060008260030160006101000a81548173ffffffffffffffffffffffffffffffffffffffff021916908373ffffffffffffffffffffffffffffffffffffffff1602179055508073ffffffffffffffffffffffffffffffffffffffff166108fc83600501549081150290604051600060405180830381858888f19350505050158015610875573d6000803e3d6000fd5b506108aa868360020160009054906101000a900473ffffffffffffffffffffffffffffffffffffffff1633856001015461123b565b5050600160008190555050505050565b60035434146108fe576040517f08c379a00000000000000000000000000000000000000000000000000000000081526004016108f590611bb3565b60405180910390fd5b8060008111610942576040517f08c379a000000000000000000000000000000000000000000000000000000000815260040161093990611c45565b60405180910390fd5b600260005403610987576040517f08c379a000000000000000000000000000000000000000000000000000000000815260040161097e90611925565b60405180910390fd5b60026000819055506109996001611397565b60006109a560016113ad565b90506040518060e001604052808281526020018581526020018673ffffffffffffffffffffffffffffffffffffffff168152602001600073ffffffffffffffffffffffffffffffffffffffff1681526020013373ffffffffffffffffffffffffffffffffffffffff16815260200184815260200160006003811115610a2d57610a2c6115fa565b5b81525060046000838152602001908152602001600020600082015181600001556020820151816001015560408201518160020160006101000a81548173ffffffffffffffffffffffffffffffffffffffff021916908373ffffffffffffffffffffffffffffffffffffffff16021790555060608201518160030160006101000a81548173ffffffffffffffffffffffffffffffffffffffff021916908373ffffffffffffffffffffffffffffffffffffffff16021790555060808201518160040160006101000a81548173ffffffffffffffffffffffffffffffffffffffff021916908373ffffffffffffffffffffffffffffffffffffffff16021790555060a0820151816005015560c08201518160060160006101000a81548160ff02191690836003811115610b6157610b606115fa565b5b0217905550905050600260009054906101000a900473ffffffffffffffffffffffffffffffffffffffff1673ffffffffffffffffffffffffffffffffffffffff166108fc6003549081150290604051600060405180830381858888f19350505050158015610bd3573d6000803e3d6000fd5b5050600160008190555050505050565b6000600354905090565b803373ffffffffffffffffffffffffffffffffffffffff166004600083815260200190815260200160002060040160009054906101000a900473ffffffffffffffffffffffffffffffffffffffff1673ffffffffffffffffffffffffffffffffffffffff161480610cbf57503373ffffffffffffffffffffffffffffffffffffffff166004600083815260200190815260200160002060030160009054906101000a900473ffffffffffffffffffffffffffffffffffffffff1673ffffffffffffffffffffffffffffffffffffffff16145b610cfe576040517f08c379a0000000000000000000000000000000000000000000000000000000008152600401610cf590611827565b60405180910390fd5b8160016003811115610d1357610d126115fa565b5b6004600083815260200190815260200160002060060160009054906101000a900460ff166003811115610d4957610d486115fa565b5b14610d89576040517f08c379a0000000000000000000000000000000000000000000000000000000008152600401610d80906119fd565b60405180910390fd5b600260005403610dce576040517f08c379a0000000000000000000000000000000000000000000000000000000008152600401610dc590611925565b60405180910390fd5b6002600081905550600060046000858152602001908152602001600020905060038160060160006101000a81548160ff02191690836003811115610e1557610e146115fa565b5b021790555060008160030160006101000a81548173ffffffffffffffffffffffffffffffffffffffff021916908373ffffffffffffffffffffffffffffffffffffffff160217905550338160040160006101000a81548173ffffffffffffffffffffffffffffffffffffffff021916908373ffffffffffffffffffffffffffffffffffffffff1602179055508060020160009054906101000a900473ffffffffffffffffffffffffffffffffffffffff1673ffffffffffffffffffffffffffffffffffffffff166323b872dd303384600101546040518463ffffffff167c0100000000000000000000000000000000000000000000000000000000028152600401610f2293929190611954565b600060405180830381600087803b158015610f3c57600080fd5b505af1158015610f50573d6000803e3d6000fd5b50505050506001600081905550505050565b60606000610f7060016113ad565b90506000808267ffffffffffffffff811115610f8f57610f8e611c65565b5b604051908082528060200260200182016040528015610fc857816020015b610fb56113bb565b815260200190600190039081610fad5790505b5090506000600190505b838111611197576000600460008381526020019081526020016000206040518060e001604052908160008201548152602001600182015481526020016002820160009054906101000a900473ffffffffffffffffffffffffffffffffffffffff1673ffffffffffffffffffffffffffffffffffffffff1673ffffffffffffffffffffffffffffffffffffffff1681526020016003820160009054906101000a900473ffffffffffffffffffffffffffffffffffffffff1673ffffffffffffffffffffffffffffffffffffffff1673ffffffffffffffffffffffffffffffffffffffff1681526020016004820160009054906101000a900473ffffffffffffffffffffffffffffffffffffffff1673ffffffffffffffffffffffffffffffffffffffff1673ffffffffffffffffffffffffffffffffffffffff168152602001600582015481526020016006820160009054906101000a900460ff16600381111561113e5761113d6115fa565b5b60038111156111505761114f6115fa565b5b8152505090508083858151811061116a57611169611c94565b5b6020026020010181905250838061118090611cf2565b94505050808061118f90611cf2565b915050610fd2565b5080935050505090565b600260009054906101000a900473ffffffffffffffffffffffffffffffffffffffff1673ffffffffffffffffffffffffffffffffffffffff163373ffffffffffffffffffffffffffffffffffffffff1614611231576040517f08c379a000000000000000000000000000000000000000000000000000000000815260040161122890611dac565b60405180910390fd5b8060038190555050565b83600260038111156112505761124f6115fa565b5b6004600083815260200190815260200160002060060160009054906101000a900460ff166003811115611286576112856115fa565b5b146112c6576040517f08c379a00000000000000000000000000000000000000000000000000000000081526004016112bd90611e3e565b60405180910390fd5b60006004600087815260200190815260200160002060060160006101000a81548160ff02191690836003811115611300576112ff6115fa565b5b02179055508373ffffffffffffffffffffffffffffffffffffffff166323b872dd3085856040518463ffffffff167c010000000000000000000000000000000000000000000000000000000002815260040161135e93929190611954565b600060405180830381600087803b15801561137857600080fd5b505af115801561138c573d6000803e3d6000fd5b505050505050505050565b6001816000016000828254019250508190555050565b600081600001549050919050565b6040518060e001604052806000815260200160008152602001600073ffffffffffffffffffffffffffffffffffffffff168152602001600073ffffffffffffffffffffffffffffffffffffffff168152602001600073ffffffffffffffffffffffffffffffffffffffff1681526020016000815260200160006003811115611446576114456115fa565b5b81525090565b600080fd5b6000819050919050565b61146481611451565b811461146f57600080fd5b50565b6000813590506114818161145b565b92915050565b60006020828403121561149d5761149c61144c565b5b60006114ab84828501611472565b91505092915050565b600073ffffffffffffffffffffffffffffffffffffffff82169050919050565b60006114df826114b4565b9050919050565b6114ef816114d4565b81146114fa57600080fd5b50565b60008135905061150c816114e6565b92915050565b60008060006060848603121561152b5761152a61144c565b5b6000611539868287016114fd565b935050602061154a86828701611472565b925050604061155b86828701611472565b9150509250925092565b61156e81611451565b82525050565b60006020820190506115896000830184611565565b92915050565b600081519050919050565b600082825260208201905092915050565b6000819050602082019050919050565b6115c481611451565b82525050565b6115d3816114d4565b82525050565b60006115e4826114b4565b9050919050565b6115f4816115d9565b82525050565b7f4e487b7100000000000000000000000000000000000000000000000000000000600052602160045260246000fd5b6004811061163a576116396115fa565b5b50565b600081905061164b82611629565b919050565b600061165b8261163d565b9050919050565b61166b81611650565b82525050565b60e08201600082015161168760008501826115bb565b50602082015161169a60208501826115bb565b5060408201516116ad60408501826115ca565b5060608201516116c060608501826115eb565b5060808201516116d360808501826115eb565b5060a08201516116e660a08501826115bb565b5060c08201516116f960c0850182611662565b50505050565b600061170b8383611671565b60e08301905092915050565b6000602082019050919050565b600061172f8261158f565b611739818561159a565b9350611744836115ab565b8060005b8381101561177557815161175c88826116ff565b975061176783611717565b925050600181019050611748565b5085935050505092915050565b6000602082019050818103600083015261179c8184611724565b905092915050565b600082825260208201905092915050565b7f4f6e6c794d696e7465723a20596f7520617265206e6f7420746865206d696e7460008201527f6572000000000000000000000000000000000000000000000000000000000000602082015250565b60006118116022836117a4565b915061181c826117b5565b604082019050919050565b6000602082019050818103600083015261184081611804565b9050919050565b7f5374617475734d696e7465644f7244656c69737465643a2043757272656e742060008201527f537461747573206973206e6f74204d696e746564206f7220446c697374656400602082015250565b60006118a3603f836117a4565b91506118ae82611847565b604082019050919050565b600060208201905081810360008301526118d281611896565b9050919050565b7f5265656e7472616e637947756172643a207265656e7472616e742063616c6c00600082015250565b600061190f601f836117a4565b915061191a826118d9565b602082019050919050565b6000602082019050818103600083015261193e81611902565b9050919050565b61194e816114d4565b82525050565b60006060820190506119696000830186611945565b6119766020830185611945565b6119836040830184611565565b949350505050565b7f5374617475734c69737465643a2043757272656e74205374617475732069732060008201527f6e6f74204c697374656400000000000000000000000000000000000000000000602082015250565b60006119e7602a836117a4565b91506119f28261198b565b604082019050919050565b60006020820190508181036000830152611a16816119da565b9050919050565b7f427579416d6f756e7453656e743a20506c656173652073656e7420746865206360008201527f6f7272656374204e465420707269636500000000000000000000000000000000602082015250565b6000611a796030836117a4565b9150611a8482611a1d565b604082019050919050565b60006020820190508181036000830152611aa881611a6c565b9050919050565b7f427579657269734e6f7453656c6c65723a20596f75206172652074686520736560008201527f6c6c657200000000000000000000000000000000000000000000000000000000602082015250565b6000611b0b6024836117a4565b9150611b1682611aaf565b604082019050919050565b60006020820190508181036000830152611b3a81611afe565b9050919050565b7f4c697374696e67507269636553656e743a20506c656173652073656e7420746860008201527f6520636f7272656374206c697374696e67206665650000000000000000000000602082015250565b6000611b9d6035836117a4565b9150611ba882611b41565b604082019050919050565b60006020820190508181036000830152611bcc81611b90565b9050919050565b7f50726963654d6f72655468616e5a65726f3a20596f752063616e20736574207060008201527f7269636520746f207a65726f0000000000000000000000000000000000000000602082015250565b6000611c2f602c836117a4565b9150611c3a82611bd3565b604082019050919050565b60006020820190508181036000830152611c5e81611c22565b9050919050565b7f4e487b7100000000000000000000000000000000000000000000000000000000600052604160045260246000fd5b7f4e487b7100000000000000000000000000000000000000000000000000000000600052603260045260246000fd5b7f4e487b7100000000000000000000000000000000000000000000000000000000600052601160045260246000fd5b6000611cfd82611451565b91507fffffffffffffffffffffffffffffffffffffffffffffffffffffffffffffffff8203611d2f57611d2e611cc3565b5b600182019050919050565b7f4f6e6c794f776e65723a2046756e6374696f6e204f6e6c79206163636573736160008201527f626c65206f66206f776e65720000000000000000000000000000000000000000602082015250565b6000611d96602c836117a4565b9150611da182611d3a565b604082019050919050565b60006020820190508181036000830152611dc581611d89565b9050919050565b7f537461747573536f6c643a2043757272656e7420537461747573206973206e6f60008201527f74204c6973746564000000000000000000000000000000000000000000000000602082015250565b6000611e286028836117a4565b9150611e3382611dcc565b604082019050919050565b60006020820190508181036000830152611e5781611e1b565b905091905056fea264697066735822122053a0bc6f79ca2367724ee7586dfd2bbd5194f0ce0a2b7753127e7fbafd2c7f9464736f6c634300080f0033",
  "immutableReferences": {},
  "source": "// SPDX-License-Identifier: MIT\npragma solidity ^0.8.15;\n\nimport \"@openzeppelin/contracts/utils/Counters.sol\";\nimport \"@openZeppelin/contracts/token/ERC721/IERC721.sol\";\nimport \"@openzeppelin/contracts/security/ReentrancyGuard.sol\";\n\ncontract NFTMarketplace is ReentrancyGuard {\n    using Counters for Counters.Counter;\n\n    /**\n     * @dev the struct contains all the details about market items.\n     * @param itemId: The market item id.\n     * @param tokenId: The token id of the NFT.\n     * @param nftContract: The nft contract address.\n     * @param seller: The listed person.\n     * @param owner: The buyer of the NFT.\n     * @param price: The NFT price.\n     * @param status: The Current status of the NFT.\n     */\n    struct MarketItem {\n        uint256 itemId;\n        uint256 tokenId;\n        address nftContract;\n        address payable seller;\n        address payable owner;\n        uint256 price;\n        NFTStatus status;\n    }\n\n    /**\n     * @dev Using counters for keep track of market items.\n     */\n    Counters.Counter private _itemIds;\n\n    /**\n     * @dev Keep track of owner of the NFTMarket contract and for pay the minting fee.\n     */\n    address payable owner;\n\n    /**\n     * @dev Listing fee to list their nfts.\n     */\n    uint256 listingFee = 0.025 ether;\n\n    /**\n     * @dev Enum to keep track of the NFT status whether it's listed, delisted, sold, Owned.\n     */\n    enum NFTStatus {\n        Owned, Listed, Sold, Delisted\n    }\n\n    /**\n     * @dev Mapping between market itemId to MarketItem.\n     */\n    mapping(uint256 => MarketItem) private _itemIdToMarketItem;\n\n    /**\n     * @dev Modifier OnlyOwner checks if the msg.sender is owner or not.\n     */\n    modifier OnlyOwner(){\n        require(msg.sender == owner, \"OnlyOwner: Function Only accessable of owner\");\n        _;\n    }\n\n    /**\n     * @dev Modifier ListingPriceSent checks if the minter sends the listing fee or not.\n     */\n    modifier ListingPriceSent() {\n        require(msg.value == listingFee, \"ListingPriceSent: Please sent the correct listing fee\");\n        _;\n    }\n\n    /**\n     * @dev Modifier PriceMoreThanZero checks if the price is more than zero.\n     * @param _price: The price which we want to check.\n     */\n    modifier PriceMoreThanZero(uint256 _price){\n        require(_price > 0, \"PriceMoreThanZero: You can set price to zero\");\n        _;\n    }\n\n    /**\n     * @dev Modifier BuyAmountSent checks if the msg.value is equals to nft price.\n     * @param _itemId: The item we want to check.\n     */\n    modifier BuyAmountSent(uint256 _itemId){\n        require(_itemIdToMarketItem[_itemId].price == msg.value, \"BuyAmountSent: Please sent the correct NFT price\");\n        _;\n    }\n\n    /**\n     * @dev Modifier BuyerisNotSeller checks if the msg.value is equals to nft price.\n     * @param _itemId: The item we want to check.\n     */\n    modifier BuyerisNotSeller(uint256 _itemId){\n        require(_itemIdToMarketItem[_itemId].seller != msg.sender, \"BuyerisNotSeller: You are the seller\");\n        _;\n    }\n\n    /**\n     * @dev Modifier OnlyMinter checks if the msg.sender is current owner.\n     * @param _itemId: The token Id which we want to check.\n     */\n    modifier OnlyMinter(uint256 _itemId){\n        require(\n            (_itemIdToMarketItem[_itemId].owner == msg.sender) || (_itemIdToMarketItem[_itemId].seller == msg.sender),\n            \"OnlyMinter: You are not the minter\");\n        _;\n    }\n\n    /**\n     * @dev Modifier StatusOwnedOrDelisted checks if the marketItem status is Owned or Delisted.\n     * @param _itemId: The item id.\n     */\n    modifier StatusOwnedOrDelisted(uint256 _itemId){\n        require(\n            (_itemIdToMarketItem[_itemId].status == NFTStatus.Owned) || (_itemIdToMarketItem[_itemId].status == NFTStatus.Delisted), \n            \"StatusMintedOrDelisted: Current Status is not Minted or Dlisted\");\n        _;\n    }\n\n    /**\n     * @dev Modifier StatusListed checks if the marketItem status is Listed.\n     * @param _itemId: The item id.\n     */\n    modifier StatusListed(uint256 _itemId){\n        require( _itemIdToMarketItem[_itemId].status == NFTStatus.Listed,  \"StatusListed: Current Status is not Listed\");\n        _;\n    }\n\n    /**\n     * @dev Modifier StatusSold checks if the marketItem status is Listed.\n     * @param _itemId: The item id.\n     */\n    modifier StatusSold(uint256 _itemId){\n        require( _itemIdToMarketItem[_itemId].status == NFTStatus.Sold,  \"StatusSold: Current Status is not Listed\");\n        _;\n    }\n\n    /**\n     * @dev Setting the owner to contract deployer.\n     */\n    constructor(){\n        owner = payable(msg.sender);\n    }\n\n    /**\n     * @dev Returns the listing fee.\n     */\n    function getListingFee() external view returns(uint256){\n        return listingFee;\n    }\n\n    /**\n     * @dev Updating the listing fee which only applicable to owner.\n     * @param _newFee: The new fee of the listing price.\n     */\n    function updateListingFee(uint256 _newFee) external OnlyOwner {\n        listingFee = _newFee;\n    }\n\n    /**\n     * @dev Geiing all the marketItems\n     */\n    function getAllMarketItems() external view returns(MarketItem[] memory){\n        uint256 totalItems = _itemIds.current();\n        uint256 marketItemsArrayIndex;\n        MarketItem[] memory marketItems = new MarketItem[](totalItems);\n        for(uint256 loopIndex = 1; loopIndex <= totalItems; loopIndex++){\n            MarketItem memory marketItem = _itemIdToMarketItem[loopIndex];\n            marketItems[marketItemsArrayIndex] = marketItem;\n            marketItemsArrayIndex++;\n        }\n        return marketItems;\n    }\n\n    /**\n     * @dev Creating marketitem.\n     * @param _nftContract: The NFT contract address.\n     * @param _price: The price of the NFT.\n     * @param _tokenId: The NFT tokenId.\n     */\n    function createMarketItem(address _nftContract, uint256 _tokenId, uint256 _price)\n        external payable ListingPriceSent PriceMoreThanZero(_price) nonReentrant {\n        _itemIds.increment();\n        uint256 newItemId = _itemIds.current();\n\n        _itemIdToMarketItem[newItemId] = MarketItem(\n            newItemId, _tokenId, _nftContract, payable(address(0)),\n            payable(msg.sender), _price, NFTStatus.Owned\n        );\n\n        owner.transfer(listingFee);\n    }\n\n    /**\n     * @dev Lising Marketitem.\n     * @param _itemId: The itemId.\n     */\n    function listMarketItem(uint256 _itemId)\n        external OnlyMinter(_itemId) StatusOwnedOrDelisted(_itemId) nonReentrant {\n            MarketItem storage marketItem =  _itemIdToMarketItem[_itemId];\n            IERC721(marketItem.nftContract).transferFrom(msg.sender, address(this), marketItem.tokenId);\n\n            marketItem.status = NFTStatus.Listed;\n            marketItem.seller = payable(msg.sender);\n            marketItem.owner = payable(address(0));\n    }\n\n    /**\n     * @dev Delist MarketItem.\n     * @param _itemId: The item id.\n     */\n    function delistMarketItem(uint256 _itemId)\n        external OnlyMinter(_itemId) StatusListed(_itemId) nonReentrant {\n        \n        MarketItem storage marketItem = _itemIdToMarketItem[_itemId];\n        marketItem.status = NFTStatus.Delisted;\n        marketItem.seller = payable(address(0));\n        marketItem.owner = payable(msg.sender);\n\n        IERC721(marketItem.nftContract).transferFrom(address(this), msg.sender, marketItem.tokenId);\n    }\n\n    /**\n     * @dev buy nfts.\n     * @param _itemId: The market item which want to buy.\n     */\n    function buyMarketItem(uint _itemId)\n        external StatusListed(_itemId) BuyAmountSent(_itemId) BuyerisNotSeller(_itemId) nonReentrant payable {\n        \n        MarketItem storage marketItem = _itemIdToMarketItem[_itemId];\n        address payable seller = marketItem.seller;\n\n        marketItem.status = NFTStatus.Sold;\n        marketItem.owner = payable(msg.sender);\n        marketItem.seller = payable(address(0));\n        seller.transfer(marketItem.price);\n\n        _approveBuyerForFurtherProcess(_itemId, marketItem.nftContract, msg.sender, marketItem.tokenId);\n    }\n\n    /**\n     * @dev Helper function for further transacion for buyer.\n     * @param _itemId: The market item.\n     * @param _nftContract: The Nft contract.\n     * @param _owner: The new owner of the nft.\n     * @param _tokenId: The token id of the NFT.\n     */\n    function _approveBuyerForFurtherProcess(uint256 _itemId, address _nftContract, address _owner, uint256 _tokenId) \n        private StatusSold(_itemId) {\n        \n        _itemIdToMarketItem[_itemId].status = NFTStatus.Owned;\n        IERC721(_nftContract).transferFrom(address(this), _owner, _tokenId);\n    }\n}",
  "sourcePath": "/Volumes/Others/Web3Projects/nftmarketplace/contracts/NFTMarketplace.sol",
  "compiler": {
    "name": "solc",
    "version": "0.8.15+commit.e14f2714.Emscripten.clang"
  },
  "schemaVersion": "3.4.8",
  "updatedAt": "2022-08-22T04:03:40.406Z",
  "networkType": "ethereum",
  "devdoc": {
    "kind": "dev",
    "methods": {
      "buyMarketItem(uint256)": {
        "details": "buy nfts.",
        "params": {
          "_itemId": ": The market item which want to buy."
        }
      },
      "constructor": {
        "details": "Setting the owner to contract deployer."
      },
      "createMarketItem(address,uint256,uint256)": {
        "details": "Creating marketitem.",
        "params": {
          "_nftContract": ": The NFT contract address.",
          "_price": ": The price of the NFT.",
          "_tokenId": ": The NFT tokenId."
        }
      },
      "delistMarketItem(uint256)": {
        "details": "Delist MarketItem.",
        "params": {
          "_itemId": ": The item id."
        }
      },
      "getAllMarketItems()": {
        "details": "Geiing all the marketItems"
      },
      "getListingFee()": {
        "details": "Returns the listing fee."
      },
      "listMarketItem(uint256)": {
        "details": "Lising Marketitem.",
        "params": {
          "_itemId": ": The itemId."
        }
      },
      "updateListingFee(uint256)": {
        "details": "Updating the listing fee which only applicable to owner.",
        "params": {
          "_newFee": ": The new fee of the listing price."
        }
      }
    },
    "stateVariables": {
      "_itemIdToMarketItem": {
        "details": "Mapping between market itemId to MarketItem."
      },
      "_itemIds": {
        "details": "Using counters for keep track of market items."
      },
      "listingFee": {
        "details": "Listing fee to list their nfts."
      },
      "owner": {
        "details": "Keep track of owner of the NFTMarket contract and for pay the minting fee."
      }
    },
    "version": 1
  },
  "userdoc": {
    "kind": "user",
    "methods": {},
    "version": 1
  }
}